{
  "transactions": [
    {
      "hash": "0x9a06af59f7969563048640442a27ccf5ab95b58e6fbcc62245393f76406c32dc",
      "transactionType": "CALL",
      "contractName": null,
      "contractAddress": "0xe12f09ac351203153a2d46b847710c721fc34368",
      "function": "filpMood(uint256)",
      "arguments": [
        "0"
      ],
      "transaction": {
        "from": "0x897527501d5f191080060f435f6ad6b36b8a66c2",
        "to": "0xe12f09ac351203153a2d46b847710c721fc34368",
        "gas": "0x9911",
        "value": "0x0",
        "input": "0xbc253a5d0000000000000000000000000000000000000000000000000000000000000000",
        "nonce": "0x34",
        "chainId": "0xaa36a7"
      },
      "additionalContracts": [],
      "isFixedGasLimit": false
    }
  ],
  "receipts": [
    {
      "status": "0x1",
      "cumulativeGasUsed": "0xd5610d",
      "logs": [],
      "logsBloom": "0x00000000000000000000000000000000000000000000000000000000000000000000000000000000000000000000000000000000000000000000000000000000000000000000000000000000000000000000000000000000000000000000000000000000000000000000000000000000000000000000000000000000000000000000000000000000000000000000000000000000000000000000000000000000000000000000000000000000000000000000000000000000000000000000000000000000000000000000000000000000000000000000000000000000000000000000000000000000000000000000000000000000000000000000000000000000",
      "type": "0x2",
      "transactionHash": "0x9a06af59f7969563048640442a27ccf5ab95b58e6fbcc62245393f76406c32dc",
      "transactionIndex": "0x86",
      "blockHash": "0xdc9026cbf853d6d90f0acfc2e7bbf7f32c5e8a9526dff450685e47a8adf79758",
      "blockNumber": "0x65a5d5",
      "gasUsed": "0x68aa",
      "effectiveGasPrice": "0x3f0f202d4",
      "from": "0x897527501d5f191080060f435f6ad6b36b8a66c2",
      "to": "0xe12f09ac351203153a2d46b847710c721fc34368",
      "contractAddress": null
    }
  ],
  "libraries": [],
  "pending": [],
  "returns": {},
  "timestamp": 1725893834,
  "chain": 11155111,
  "commit": "22c2bca"
}