{
  "transactions": [
    {
      "hash": "0xbe28538d84684756085b6dac698c331a3f47496b2b95317569499178456ae661",
      "transactionType": "CALL",
      "contractName": null,
      "contractAddress": "0x9ac63ddb71871da58cd60de07a15b1019a5e9cfe",
      "function": "mintNFT(string)",
      "arguments": [
        "\"ipfs://QmdD5ECABqWjseECSp2jiJ9V3eu7uYN2atr8qfZsahbsZb\""
      ],
      "transaction": {
        "from": "0x897527501d5f191080060f435f6ad6b36b8a66c2",
        "to": "0x9ac63ddb71871da58cd60de07a15b1019a5e9cfe",
        "gas": "0x35b8c",
        "value": "0x0",
        "input": "0xfb37e88300000000000000000000000000000000000000000000000000000000000000200000000000000000000000000000000000000000000000000000000000000035697066733a2f2f516d6444354543414271576a736545435370326a694a39563365753775594e326174723871665a73616862735a620000000000000000000000",
        "nonce": "0x2c",
        "chainId": "0xaa36a7"
      },
      "additionalContracts": [],
      "isFixedGasLimit": false
    }
  ],
  "receipts": [
    {
      "status": "0x1",
      "cumulativeGasUsed": "0xc3bbe1",
      "logs": [
        {
          "address": "0x9ac63ddb71871da58cd60de07a15b1019a5e9cfe",
          "topics": [
            "0xddf252ad1be2c89b69c2b068fc378daa952ba7f163c4a11628f55a4df523b3ef",
            "0x0000000000000000000000000000000000000000000000000000000000000000",
            "0x000000000000000000000000897527501d5f191080060f435f6ad6b36b8a66c2",
            "0x0000000000000000000000000000000000000000000000000000000000000000"
          ],
          "data": "0x",
          "blockHash": "0xfeee5d62186b090331d936bff6a609e2e59968cf6495c07f9425c73b2e1384f9",
          "blockNumber": "0x65823a",
          "transactionHash": "0xbe28538d84684756085b6dac698c331a3f47496b2b95317569499178456ae661",
          "transactionIndex": "0xa8",
          "logIndex": "0xcf",
          "removed": false
        }
      ],
      "logsBloom": "0x00000000000000000000000000000800000000000000000000000000000800000000000000000000000000000000000000000000000000000000000000000000000000000000000000000008000000000000000000000000000000000000000000000000020000000000000000000800000000000000000400004010000000000000000000000000000000000000000000000000000000000000000000000000000000000000000000000000000000000000000000000000000000000000000000000002000000000000000000000000000000000000000000000000000020000004000000000000000000000000000000000400000000000000000000000000",
      "type": "0x2",
      "transactionHash": "0xbe28538d84684756085b6dac698c331a3f47496b2b95317569499178456ae661",
      "transactionIndex": "0xa8",
      "blockHash": "0xfeee5d62186b090331d936bff6a609e2e59968cf6495c07f9425c73b2e1384f9",
      "blockNumber": "0x65823a",
      "gasUsed": "0x26e4d",
      "effectiveGasPrice": "0x6da4091",
      "from": "0x897527501d5f191080060f435f6ad6b36b8a66c2",
      "to": "0x9ac63ddb71871da58cd60de07a15b1019a5e9cfe",
      "contractAddress": null
    }
  ],
  "libraries": [],
  "pending": [],
  "returns": {},
  "timestamp": 1725759871,
  "chain": 11155111,
  "commit": "64d769a"
}