{
  "transactions": [
    {
      "hash": "0x31d7862c5aa490208165c8cad8d2ede50d344cb532acc0781e900171bf28cbda",
      "transactionType": "CALL",
      "contractName": null,
      "contractAddress": "0xa852876397e506fcba039c3d9bbcce1e6c263981",
      "function": "mintNFT(string)",
      "arguments": [
        "\"ipfs://QmdD5ECABqWjseECSp2jiJ9V3eu7uYN2atr8qfZsahbsZb\""
      ],
      "transaction": {
        "from": "0x897527501d5f191080060f435f6ad6b36b8a66c2",
        "to": "0xa852876397e506fcba039c3d9bbcce1e6c263981",
        "gas": "0x35b8c",
        "value": "0x0",
        "input": "0xfb37e88300000000000000000000000000000000000000000000000000000000000000200000000000000000000000000000000000000000000000000000000000000035697066733a2f2f516d6444354543414271576a736545435370326a694a39563365753775594e326174723871665a73616862735a620000000000000000000000",
        "nonce": "0x27",
        "chainId": "0xaa36a7"
      },
      "additionalContracts": [],
      "isFixedGasLimit": false
    }
  ],
  "receipts": [
    {
      "status": "0x1",
      "cumulativeGasUsed": "0xc9ebf9",
      "logs": [
        {
          "address": "0xa852876397e506fcba039c3d9bbcce1e6c263981",
          "topics": [
            "0xddf252ad1be2c89b69c2b068fc378daa952ba7f163c4a11628f55a4df523b3ef",
            "0x0000000000000000000000000000000000000000000000000000000000000000",
            "0x000000000000000000000000897527501d5f191080060f435f6ad6b36b8a66c2",
            "0x0000000000000000000000000000000000000000000000000000000000000000"
          ],
          "data": "0x",
          "blockHash": "0x4d34af413cf8f361b200704fe33fc4dd28c93befbf06f73c7d9a2c50d820d697",
          "blockNumber": "0x657793",
          "transactionHash": "0x31d7862c5aa490208165c8cad8d2ede50d344cb532acc0781e900171bf28cbda",
          "transactionIndex": "0x88",
          "logIndex": "0x8d",
          "removed": false
        }
      ],
      "logsBloom": "0x00000000000000000000000000000800000000000000000000000000000000000000000000000000000000000000000000000000000000000000000000000000000000000000000000000008000000000000000000000000000000000000000000000000020000000000000000000800000000000000000440004010000000000000000000000000000000000000000000000004000000000000000000000000000000000000000000000000000000000000000000040000000000000000000000000002000000000000000000000000000000000000000000000000000020000000000000000000000000000000000000000000000000000000000000000000",
      "type": "0x2",
      "transactionHash": "0x31d7862c5aa490208165c8cad8d2ede50d344cb532acc0781e900171bf28cbda",
      "transactionIndex": "0x88",
      "blockHash": "0x4d34af413cf8f361b200704fe33fc4dd28c93befbf06f73c7d9a2c50d820d697",
      "blockNumber": "0x657793",
      "gasUsed": "0x26e4d",
      "effectiveGasPrice": "0xdc934a76",
      "from": "0x897527501d5f191080060f435f6ad6b36b8a66c2",
      "to": "0xa852876397e506fcba039c3d9bbcce1e6c263981",
      "contractAddress": null
    }
  ],
  "libraries": [],
  "pending": [],
  "returns": {},
  "timestamp": 1725720160,
  "chain": 11155111,
  "commit": "64d769a"
}