{
  "transactions": [
    {
      "hash": "0xa733d6d9e96bce4f5ac992c7be22fb71976442f63d2bcdda672deb13d7bbfa3c",
      "transactionType": "CALL",
      "contractName": null,
      "contractAddress": "0x36f2bac35f3fa3903391423f8173ab76a07250a5",
      "function": "mintNFT(string)",
      "arguments": [
        "\"ipfs://QmNxiREtasW3m7sp57WELL83zSVHFFEfEbbnDAd2DBf7Ub\""
      ],
      "transaction": {
        "from": "0x897527501d5f191080060f435f6ad6b36b8a66c2",
        "to": "0x36f2bac35f3fa3903391423f8173ab76a07250a5",
        "gas": "0x35b8c",
        "value": "0x0",
        "input": "0xfb37e88300000000000000000000000000000000000000000000000000000000000000200000000000000000000000000000000000000000000000000000000000000035697066733a2f2f516d4e7869524574617357336d377370353757454c4c38337a535648464645664562626e444164324442663755620000000000000000000000",
        "nonce": "0x2a",
        "chainId": "0xaa36a7"
      },
      "additionalContracts": [],
      "isFixedGasLimit": false
    }
  ],
  "receipts": [
    {
      "status": "0x1",
      "cumulativeGasUsed": "0xc980a8",
      "logs": [
        {
          "address": "0x36f2bac35f3fa3903391423f8173ab76a07250a5",
          "topics": [
            "0xddf252ad1be2c89b69c2b068fc378daa952ba7f163c4a11628f55a4df523b3ef",
            "0x0000000000000000000000000000000000000000000000000000000000000000",
            "0x000000000000000000000000897527501d5f191080060f435f6ad6b36b8a66c2",
            "0x0000000000000000000000000000000000000000000000000000000000000000"
          ],
          "data": "0x",
          "blockHash": "0x8cdd9a89c00e1baab999e98ff6719a4e5b31910433280edb3324eb824870f34a",
          "blockNumber": "0x657809",
          "transactionHash": "0xa733d6d9e96bce4f5ac992c7be22fb71976442f63d2bcdda672deb13d7bbfa3c",
          "transactionIndex": "0x9c",
          "logIndex": "0xb8",
          "removed": false
        }
      ],
      "logsBloom": "0x00000000000000000000000000000800000000000000000000000000000000000000000200000000000000000000000000000000000000000000000000000000000000000000000000800008000000000000000000000000000000000000000000000000020000000000000000000800000000000000000400004010000000000000000000000000000000000000000000000000000000000000000000000000000000000000000000000000000000000000000000000020000000000000000000000002000000000000000000000000000000000000000000000000000020000000000000000000000000000000000000000000000000000000000000000000",
      "type": "0x2",
      "transactionHash": "0xa733d6d9e96bce4f5ac992c7be22fb71976442f63d2bcdda672deb13d7bbfa3c",
      "transactionIndex": "0x9c",
      "blockHash": "0x8cdd9a89c00e1baab999e98ff6719a4e5b31910433280edb3324eb824870f34a",
      "blockNumber": "0x657809",
      "gasUsed": "0x26e4d",
      "effectiveGasPrice": "0x60567780b",
      "from": "0x897527501d5f191080060f435f6ad6b36b8a66c2",
      "to": "0x36f2bac35f3fa3903391423f8173ab76a07250a5",
      "contractAddress": null
    }
  ],
  "libraries": [],
  "pending": [],
  "returns": {},
  "timestamp": 1725721926,
  "chain": 11155111,
  "commit": "64d769a"
}